{
  "contractName": "FractionalPublication",
  "abi": [
    {
      "constant": true,
      "inputs": [],
      "name": "purchasesLength",
      "outputs": [
        {
          "name": "",
          "type": "uint256"
        }
      ],
      "payable": false,
      "stateMutability": "view",
      "type": "function"
    },
    {
      "constant": true,
      "inputs": [],
      "name": "created",
      "outputs": [
        {
          "name": "",
          "type": "uint256"
        }
      ],
      "payable": false,
      "stateMutability": "view",
      "type": "function"
    },
    {
      "constant": true,
      "inputs": [
        {
          "name": "_index",
          "type": "uint256"
        }
      ],
      "name": "getPurchase",
      "outputs": [
        {
          "name": "",
          "type": "address"
        }
      ],
      "payable": false,
      "stateMutability": "view",
      "type": "function"
    },
    {
      "constant": true,
      "inputs": [],
      "name": "expiration",
      "outputs": [
        {
          "name": "",
          "type": "uint256"
        }
      ],
      "payable": false,
      "stateMutability": "view",
      "type": "function"
    },
    {
      "constant": true,
      "inputs": [
        {
          "name": "",
          "type": "uint256"
        }
      ],
      "name": "purchases",
      "outputs": [
        {
          "name": "",
          "type": "address"
        }
      ],
      "payable": false,
      "stateMutability": "view",
      "type": "function"
    },
    {
      "constant": true,
      "inputs": [
        {
          "name": "",
          "type": "uint256"
        }
      ],
      "name": "versions",
      "outputs": [
        {
          "name": "timestamp",
          "type": "uint256"
        },
        {
          "name": "ipfsHash",
          "type": "bytes32"
        }
      ],
      "payable": false,
      "stateMutability": "view",
      "type": "function"
    },
    {
      "constant": true,
      "inputs": [],
      "name": "owner",
      "outputs": [
        {
          "name": "",
          "type": "address"
        }
      ],
      "payable": false,
      "stateMutability": "view",
      "type": "function"
    },
    {
      "constant": true,
      "inputs": [],
      "name": "needsSellerApproval",
      "outputs": [
        {
          "name": "",
          "type": "bool"
        }
      ],
      "payable": false,
      "stateMutability": "view",
      "type": "function"
    },
    {
      "constant": true,
      "inputs": [],
      "name": "publicationRegistry",
      "outputs": [
        {
          "name": "",
          "type": "address"
        }
      ],
      "payable": false,
      "stateMutability": "view",
      "type": "function"
    },
    {
      "inputs": [
        {
          "name": "_owner",
          "type": "address"
        },
        {
          "name": "_ipfsHash",
          "type": "bytes32"
        }
      ],
      "payable": false,
      "stateMutability": "nonpayable",
      "type": "constructor"
    },
    {
      "anonymous": false,
      "inputs": [
        {
          "indexed": false,
          "name": "_purchaseContract",
          "type": "address"
        }
      ],
      "name": "PublicationPurchased",
      "type": "event"
    },
    {
      "anonymous": false,
      "inputs": [],
      "name": "PublicationChange",
      "type": "event"
    },
    {
      "constant": true,
      "inputs": [
        {
          "name": "",
          "type": "address"
        }
      ],
      "name": "isApproved",
      "outputs": [
        {
          "name": "",
          "type": "bool"
        }
      ],
      "payable": false,
      "stateMutability": "view",
      "type": "function"
    },
    {
      "constant": true,
      "inputs": [],
      "name": "ipfsHash",
      "outputs": [
        {
          "name": "",
          "type": "bytes32"
        }
      ],
      "payable": false,
      "stateMutability": "view",
      "type": "function"
    },
    {
      "constant": true,
      "inputs": [],
      "name": "currentVersion",
      "outputs": [
        {
          "name": "",
          "type": "uint256"
        }
      ],
      "payable": false,
      "stateMutability": "view",
      "type": "function"
    },
    {
      "constant": true,
      "inputs": [
        {
          "name": "_version",
          "type": "uint256"
        }
      ],
      "name": "data",
      "outputs": [
        {
          "name": "timestamp",
          "type": "uint256"
        },
        {
          "name": "_ipfsHash",
          "type": "bytes32"
        }
      ],
      "payable": false,
      "stateMutability": "view",
      "type": "function"
    },
    {
      "constant": false,
      "inputs": [
        {
          "name": "_currentVersion",
          "type": "uint256"
        },
        {
          "name": "_ipfsHash",
          "type": "bytes32"
        }
      ],
      "name": "update",
      "outputs": [],
      "payable": false,
      "stateMutability": "nonpayable",
      "type": "function"
    },
    {
      "constant": false,
      "inputs": [
        {
          "name": "_ipfsHash",
          "type": "bytes32"
        }
      ],
      "name": "request",
      "outputs": [],
      "payable": true,
      "stateMutability": "payable",
      "type": "function"
    }
  ],
  "bytecode": "0x608060405234801561001057600080fd5b50604051604080610c298339810180604052810190808051906020019092919080519060200190929190505050816000806101000a81548173ffffffffffffffffffffffffffffffffffffffff021916908373ffffffffffffffffffffffffffffffffffffffff16021790555033600160006101000a81548173ffffffffffffffffffffffffffffffffffffffff021916908373ffffffffffffffffffffffffffffffffffffffff16021790555060066040805190810160405280428152602001836000191681525090806001815401808255809150509060018203906000526020600020906002020160009091929091909150600082015181600001556020820151816001019060001916905550505042600281905550624f1a00600254016003819055506001600460006101000a81548160ff0219169083151502179055505050610ac7806101626000396000f3006080604052600436106100db576000357c0100000000000000000000000000000000000000000000000000000000900463ffffffff16806328e671b9146100e0578063325a19f11461010b5780633742a9f7146101365780634665096d146101a357806359c87d70146101ce578063673448dd146101f25780638392fe311461024d57806387aee00e146102ba5780638da5cb5b1461030a5780639d888e8614610361578063b3fbc3dc1461038c578063b42a3469146103bb578063c623674f14610412578063d3b7576c14610445578063f0ba844014610480575b600080fd5b3480156100ec57600080fd5b506100f56104d0565b6040518082815260200191505060405180910390f35b34801561011757600080fd5b506101206104dd565b6040518082815260200191505060405180910390f35b34801561014257600080fd5b50610161600480360381019080803590602001909291905050506104e3565b604051808273ffffffffffffffffffffffffffffffffffffffff1673ffffffffffffffffffffffffffffffffffffffff16815260200191505060405180910390f35b3480156101af57600080fd5b506101b8610526565b6040518082815260200191505060405180910390f35b6101f0600480360381019080803560001916906020019092919050505061052c565b005b3480156101fe57600080fd5b50610233600480360381019080803573ffffffffffffffffffffffffffffffffffffffff169060200190929190505050610837565b604051808215151515815260200191505060405180910390f35b34801561025957600080fd5b5061027860048036038101908080359060200190929190505050610841565b604051808273ffffffffffffffffffffffffffffffffffffffff1673ffffffffffffffffffffffffffffffffffffffff16815260200191505060405180910390f35b3480156102c657600080fd5b506102e56004803603810190808035906020019092919050505061087f565b6040518083815260200182600019166000191681526020019250505060405180910390f35b34801561031657600080fd5b5061031f6108b2565b604051808273ffffffffffffffffffffffffffffffffffffffff1673ffffffffffffffffffffffffffffffffffffffff16815260200191505060405180910390f35b34801561036d57600080fd5b506103766108d7565b6040518082815260200191505060405180910390f35b34801561039857600080fd5b506103a16108e7565b604051808215151515815260200191505060405180910390f35b3480156103c757600080fd5b506103d06108fa565b604051808273ffffffffffffffffffffffffffffffffffffffff1673ffffffffffffffffffffffffffffffffffffffff16815260200191505060405180910390f35b34801561041e57600080fd5b50610427610920565b60405180826000191660001916815260200191505060405180910390f35b34801561045157600080fd5b5061047e60048036038101908080359060200190929190803560001916906020019092919050505061094f565b005b34801561048c57600080fd5b506104ab60048036038101908080359060200190929190505050610a4d565b6040518083815260200182600019166000191681526020019250505060405180910390f35b6000600580549050905090565b60025481565b60006005828154811015156104f457fe5b9060005260206000200160009054906101000a900473ffffffffffffffffffffffffffffffffffffffff169050919050565b60035481565b60008060009054906101000a900473ffffffffffffffffffffffffffffffffffffffff1673ffffffffffffffffffffffffffffffffffffffff163373ffffffffffffffffffffffffffffffffffffffff161415151561058a57600080fd5b6003544210151561059a57600080fd5b73__PurchaseLibrary_______________________6365227d15306105bd6108d7565b85336040518563ffffffff167c0100000000000000000000000000000000000000000000000000000000028152600401808573ffffffffffffffffffffffffffffffffffffffff1673ffffffffffffffffffffffffffffffffffffffff16815260200184815260200183600019166000191681526020018273ffffffffffffffffffffffffffffffffffffffff1673ffffffffffffffffffffffffffffffffffffffff16815260200194505050505060206040518083038186803b15801561068457600080fd5b505af4158015610698573d6000803e3d6000fd5b505050506040513d60208110156106ae57600080fd5b8101908080519060200190929190505050905060058190806001815401808255809150509060018203906000526020600020016000909192909190916101000a81548173ffffffffffffffffffffffffffffffffffffffff021916908373ffffffffffffffffffffffffffffffffffffffff160217905550508073ffffffffffffffffffffffffffffffffffffffff16631b9265b8346040518263ffffffff167c01000000000000000000000000000000000000000000000000000000000281526004016000604051808303818588803b15801561078b57600080fd5b505af115801561079f573d6000803e3d6000fd5b50505050507f56a36f7cab0bd0ad5a828edc727be849fae684e1f97615397a1ad502d7ee636081604051808273ffffffffffffffffffffffffffffffffffffffff1673ffffffffffffffffffffffffffffffffffffffff16815260200191505060405180910390a17f91421f8b287136d63da295497519b57f83e4fab66143eeff73cd1aba3c3d71cf60405160405180910390a15050565b6000809050919050565b60058181548110151561085057fe5b906000526020600020016000915054906101000a900473ffffffffffffffffffffffffffffffffffffffff1681565b60068181548110151561088e57fe5b90600052602060002090600202016000915090508060000154908060010154905082565b6000809054906101000a900473ffffffffffffffffffffffffffffffffffffffff1681565b6000600160068054905003905090565b600460009054906101000a900460ff1681565b600160009054906101000a900473ffffffffffffffffffffffffffffffffffffffff1681565b6000600661092c6108d7565b81548110151561093857fe5b906000526020600020906002020160010154905090565b6000809054906101000a900473ffffffffffffffffffffffffffffffffffffffff1673ffffffffffffffffffffffffffffffffffffffff163373ffffffffffffffffffffffffffffffffffffffff161415156109aa57600080fd5b6109b26108d7565b821415610a49576006604080519081016040528042815260200183600019168152509080600181540180825580915050906001820390600052602060002090600202016000909192909190915060008201518160000155602082015181600101906000191690555050507f91421f8b287136d63da295497519b57f83e4fab66143eeff73cd1aba3c3d71cf60405160405180910390a15b5050565b600080600683815481101515610a5f57fe5b906000526020600020906002020160000154600684815481101515610a8057fe5b906000526020600020906002020160010154915091509150915600a165627a7a723058207105c793760c53301eb03830cd0912475f7ad59852e0d21118f6796a8e95d47f0029",
  "source": "pragma solidity 0.4.24;\n\nimport \"./Publication.sol\";\nimport \"./PurchaseLibrary.sol\";\n\ncontract FractionalPublication is Publication {\n\n  /*\n   * Events\n   */\n\n  event PublicationPurchased(Purchase _purchaseContract);\n\n  /*\n  * Storage\n  */\n\n  struct Version {\n      uint timestamp;\n      bytes32 ipfsHash;\n  }\n\n  Version[] public versions;\n\n\n  constructor (\n    address _owner,\n    bytes32 _ipfsHash\n  )\n  public\n  {\n    owner = _owner;\n    publicationRegistry = msg.sender; // PublicationRegistry(msg.sender);\n    versions.push(Version(now, _ipfsHash));\n    created = now;\n    expiration = created + 60 days;\n    needsSellerApproval = true;\n  }\n\n  /*\n    * Public functions\n  */\n\n  function isApproved(Purchase)\n    public\n    view\n    returns (bool)\n  {\n    return false;\n  }\n\n  function ipfsHash()\n    public\n    constant\n    returns (bytes32)\n  {\n    return versions[currentVersion()].ipfsHash;\n  }\n\n  function currentVersion()\n    public\n    constant\n    returns (uint)\n  {\n    return versions.length - 1;\n  }\n\n  function data(uint _version)\n    public\n    constant\n    returns (uint timestamp, bytes32 _ipfsHash)\n  {\n    return (versions[_version].timestamp, versions[_version].ipfsHash);\n  }\n\n  function update(uint _currentVersion, bytes32 _ipfsHash)\n    public\n    isSeller\n  {\n    if (_currentVersion == currentVersion()) {\n      versions.push(Version(now, _ipfsHash));\n      emit PublicationChange();\n    }\n  }\n\n  function request(bytes32 _ipfsHash)\n    public\n    payable\n    isNotSeller\n    hasNotExpired\n  {\n    // Create purchase contract\n    Purchase purchaseContract = PurchaseLibrary.newPurchase(this, currentVersion(), _ipfsHash, msg.sender);\n\n    purchases.push(purchaseContract);\n\n    // TODO STAN: How to call function *AND* transfer value??\n    purchaseContract.pay.value(msg.value)();\n\n    emit PublicationPurchased(purchaseContract);\n    emit PublicationChange();\n  }\n\n}\n",
  "sourcePath": "/home/alejandro/workspace/synapseslabs/synapses-contracts/contracts/FractionalPublication.sol",
  "compiler": {
    "name": "solc",
    "version": "0.4.24+commit.e67f0147.Emscripten.clang"
  },
  "schemaVersion": "2.0.0",
  "updatedAt": "2018-08-07T16:24:04.349Z"
}