{
  "contractName": "PublicationsRegistry",
  "abi": [
    {
      "constant": true,
      "inputs": [],
      "name": "publicationStorage",
      "outputs": [
        {
          "name": "",
          "type": "address"
        }
      ],
      "payable": false,
      "stateMutability": "view",
      "type": "function"
    },
    {
      "constant": true,
      "inputs": [],
      "name": "owner",
      "outputs": [
        {
          "name": "",
          "type": "address"
        }
      ],
      "payable": false,
      "stateMutability": "view",
      "type": "function"
    },
    {
      "inputs": [
        {
          "name": "_publicationStorage",
          "type": "address"
        }
      ],
      "payable": false,
      "stateMutability": "nonpayable",
      "type": "constructor"
    },
    {
      "anonymous": false,
      "inputs": [
        {
          "indexed": false,
          "name": "_index",
          "type": "uint256"
        },
        {
          "indexed": false,
          "name": "_address",
          "type": "address"
        }
      ],
      "name": "NewPublication",
      "type": "event"
    },
    {
      "constant": true,
      "inputs": [],
      "name": "publicationsLength",
      "outputs": [
        {
          "name": "",
          "type": "uint256"
        }
      ],
      "payable": false,
      "stateMutability": "view",
      "type": "function"
    },
    {
      "constant": true,
      "inputs": [
        {
          "name": "_index",
          "type": "uint256"
        }
      ],
      "name": "getPublicationAddress",
      "outputs": [
        {
          "name": "",
          "type": "address"
        }
      ],
      "payable": false,
      "stateMutability": "view",
      "type": "function"
    },
    {
      "constant": false,
      "inputs": [
        {
          "name": "_ipfsHash",
          "type": "bytes32"
        },
        {
          "name": "_price",
          "type": "uint256"
        },
        {
          "name": "_unitsAvailable",
          "type": "uint256"
        }
      ],
      "name": "create",
      "outputs": [
        {
          "name": "",
          "type": "uint256"
        }
      ],
      "payable": false,
      "stateMutability": "nonpayable",
      "type": "function"
    },
    {
      "constant": false,
      "inputs": [
        {
          "name": "_ipfsHash",
          "type": "bytes32"
        }
      ],
      "name": "createFractional",
      "outputs": [
        {
          "name": "",
          "type": "uint256"
        }
      ],
      "payable": false,
      "stateMutability": "nonpayable",
      "type": "function"
    },
    {
      "constant": false,
      "inputs": [
        {
          "name": "_ipfsHash",
          "type": "bytes32"
        },
        {
          "name": "_price",
          "type": "uint256"
        },
        {
          "name": "_unitsAvailable",
          "type": "uint256"
        },
        {
          "name": "_creatorAddress",
          "type": "address"
        }
      ],
      "name": "createOnBehalf",
      "outputs": [
        {
          "name": "",
          "type": "uint256"
        }
      ],
      "payable": false,
      "stateMutability": "nonpayable",
      "type": "function"
    },
    {
      "constant": true,
      "inputs": [
        {
          "name": "_publicationAddress",
          "type": "address"
        }
      ],
      "name": "isTrustedPublication",
      "outputs": [
        {
          "name": "",
          "type": "bool"
        }
      ],
      "payable": false,
      "stateMutability": "view",
      "type": "function"
    }
  ],
  "bytecode": "0x608060405234801561001057600080fd5b50604051602080612a0283398101806040528101908080519060200190929190505050336000806101000a81548173ffffffffffffffffffffffffffffffffffffffff021916908373ffffffffffffffffffffffffffffffffffffffff16021790555080600160006101000a81548173ffffffffffffffffffffffffffffffffffffffff021916908373ffffffffffffffffffffffffffffffffffffffff1602179055505061293e806100c46000396000f30060806040526004361061008e576000357c0100000000000000000000000000000000000000000000000000000000900463ffffffff1680630a97c8dd14610093578063493baef314610100578063599e33161461012b57806385f108af146101825780638da5cb5b146101dd578063951dc8441461023457806395d7d650146102ad578063b5f8c36b146102f2575b600080fd5b34801561009f57600080fd5b506100be6004803603810190808035906020019092919050505061034b565b604051808273ffffffffffffffffffffffffffffffffffffffff1673ffffffffffffffffffffffffffffffffffffffff16815260200191505060405180910390f35b34801561010c57600080fd5b50610115610420565b6040518082815260200191505060405180910390f35b34801561013757600080fd5b506101406104e8565b604051808273ffffffffffffffffffffffffffffffffffffffff1673ffffffffffffffffffffffffffffffffffffffff16815260200191505060405180910390f35b34801561018e57600080fd5b506101c3600480360381019080803573ffffffffffffffffffffffffffffffffffffffff16906020019092919050505061050e565b604051808215151515815260200191505060405180910390f35b3480156101e957600080fd5b506101f261060f565b604051808273ffffffffffffffffffffffffffffffffffffffff1673ffffffffffffffffffffffffffffffffffffffff16815260200191505060405180910390f35b34801561024057600080fd5b5061029760048036038101908080356000191690602001909291908035906020019092919080359060200190929190803573ffffffffffffffffffffffffffffffffffffffff169060200190929190505050610634565b6040518082815260200191505060405180910390f35b3480156102b957600080fd5b506102dc6004803603810190808035600019169060200190929190505050610a6b565b6040518082815260200191505060405180910390f35b3480156102fe57600080fd5b5061033560048036038101908080356000191690602001909291908035906020019092919080359060200190929190505050610dcb565b6040518082815260200191505060405180910390f35b6000600160009054906101000a900473ffffffffffffffffffffffffffffffffffffffff1673ffffffffffffffffffffffffffffffffffffffff16631fd5bbab836040518263ffffffff167c010000000000000000000000000000000000000000000000000000000002815260040180828152602001915050602060405180830381600087803b1580156103de57600080fd5b505af11580156103f2573d6000803e3d6000fd5b505050506040513d602081101561040857600080fd5b81019080805190602001909291905050509050919050565b6000600160009054906101000a900473ffffffffffffffffffffffffffffffffffffffff1673ffffffffffffffffffffffffffffffffffffffff16631f7b6d326040518163ffffffff167c0100000000000000000000000000000000000000000000000000000000028152600401602060405180830381600087803b1580156104a857600080fd5b505af11580156104bc573d6000803e3d6000fd5b505050506040513d60208110156104d257600080fd5b8101908080519060200190929190505050905090565b600160009054906101000a900473ffffffffffffffffffffffffffffffffffffffff1681565b6000600160009054906101000a900473ffffffffffffffffffffffffffffffffffffffff1673ffffffffffffffffffffffffffffffffffffffff166385f108af836040518263ffffffff167c0100000000000000000000000000000000000000000000000000000000028152600401808273ffffffffffffffffffffffffffffffffffffffff1673ffffffffffffffffffffffffffffffffffffffff168152602001915050602060405180830381600087803b1580156105cd57600080fd5b505af11580156105e1573d6000803e3d6000fd5b505050506040513d60208110156105f757600080fd5b81019080805190602001909291905050509050919050565b6000809054906101000a900473ffffffffffffffffffffffffffffffffffffffff1681565b6000806000809054906101000a900473ffffffffffffffffffffffffffffffffffffffff1673ffffffffffffffffffffffffffffffffffffffff163373ffffffffffffffffffffffffffffffffffffffff161415156106fb576040517f08c379a000000000000000000000000000000000000000000000000000000000815260040180806020018281038252601f8152602001807f4f6e6c792063616c6c61626c65206279207265676973747279206f776e65720081525060200191505060405180910390fd5b8286868661070761113d565b808573ffffffffffffffffffffffffffffffffffffffff1673ffffffffffffffffffffffffffffffffffffffff1681526020018460001916600019168152602001838152602001828152602001945050505050604051809103906000f080158015610776573d6000803e3d6000fd5b509050600160009054906101000a900473ffffffffffffffffffffffffffffffffffffffff1673ffffffffffffffffffffffffffffffffffffffff16630a3b0a4f826040518263ffffffff167c0100000000000000000000000000000000000000000000000000000000028152600401808273ffffffffffffffffffffffffffffffffffffffff1673ffffffffffffffffffffffffffffffffffffffff168152602001915050602060405180830381600087803b15801561083657600080fd5b505af115801561084a573d6000803e3d6000fd5b505050506040513d602081101561086057600080fd5b8101908080519060200190929190505050507f65e7ae2b280c6db6cfd876dae9be7d970b16a478d982452079a4c44181627db860018060009054906101000a900473ffffffffffffffffffffffffffffffffffffffff1673ffffffffffffffffffffffffffffffffffffffff16631f7b6d326040518163ffffffff167c0100000000000000000000000000000000000000000000000000000000028152600401602060405180830381600087803b15801561091a57600080fd5b505af115801561092e573d6000803e3d6000fd5b505050506040513d602081101561094457600080fd5b81019080805190602001909291905050500382604051808381526020018273ffffffffffffffffffffffffffffffffffffffff1673ffffffffffffffffffffffffffffffffffffffff1681526020019250505060405180910390a1600160009054906101000a900473ffffffffffffffffffffffffffffffffffffffff1673ffffffffffffffffffffffffffffffffffffffff16631f7b6d326040518163ffffffff167c0100000000000000000000000000000000000000000000000000000000028152600401602060405180830381600087803b158015610a2557600080fd5b505af1158015610a39573d6000803e3d6000fd5b505050506040513d6020811015610a4f57600080fd5b8101908080519060200190929190505050915050949350505050565b6000803383610a7861114d565b808373ffffffffffffffffffffffffffffffffffffffff1673ffffffffffffffffffffffffffffffffffffffff168152602001826000191660001916815260200192505050604051809103906000f080158015610ad9573d6000803e3d6000fd5b509050600160009054906101000a900473ffffffffffffffffffffffffffffffffffffffff1673ffffffffffffffffffffffffffffffffffffffff16630a3b0a4f826040518263ffffffff167c0100000000000000000000000000000000000000000000000000000000028152600401808273ffffffffffffffffffffffffffffffffffffffff1673ffffffffffffffffffffffffffffffffffffffff168152602001915050602060405180830381600087803b158015610b9957600080fd5b505af1158015610bad573d6000803e3d6000fd5b505050506040513d6020811015610bc357600080fd5b8101908080519060200190929190505050507f65e7ae2b280c6db6cfd876dae9be7d970b16a478d982452079a4c44181627db860018060009054906101000a900473ffffffffffffffffffffffffffffffffffffffff1673ffffffffffffffffffffffffffffffffffffffff16631f7b6d326040518163ffffffff167c0100000000000000000000000000000000000000000000000000000000028152600401602060405180830381600087803b158015610c7d57600080fd5b505af1158015610c91573d6000803e3d6000fd5b505050506040513d6020811015610ca757600080fd5b81019080805190602001909291905050500382604051808381526020018273ffffffffffffffffffffffffffffffffffffffff1673ffffffffffffffffffffffffffffffffffffffff1681526020019250505060405180910390a1600160009054906101000a900473ffffffffffffffffffffffffffffffffffffffff1673ffffffffffffffffffffffffffffffffffffffff16631f7b6d326040518163ffffffff167c0100000000000000000000000000000000000000000000000000000000028152600401602060405180830381600087803b158015610d8857600080fd5b505af1158015610d9c573d6000803e3d6000fd5b505050506040513d6020811015610db257600080fd5b8101908080519060200190929190505050915050919050565b60008033858585610dda61113d565b808573ffffffffffffffffffffffffffffffffffffffff1673ffffffffffffffffffffffffffffffffffffffff1681526020018460001916600019168152602001838152602001828152602001945050505050604051809103906000f080158015610e49573d6000803e3d6000fd5b509050600160009054906101000a900473ffffffffffffffffffffffffffffffffffffffff1673ffffffffffffffffffffffffffffffffffffffff16630a3b0a4f826040518263ffffffff167c0100000000000000000000000000000000000000000000000000000000028152600401808273ffffffffffffffffffffffffffffffffffffffff1673ffffffffffffffffffffffffffffffffffffffff168152602001915050602060405180830381600087803b158015610f0957600080fd5b505af1158015610f1d573d6000803e3d6000fd5b505050506040513d6020811015610f3357600080fd5b8101908080519060200190929190505050507f65e7ae2b280c6db6cfd876dae9be7d970b16a478d982452079a4c44181627db860018060009054906101000a900473ffffffffffffffffffffffffffffffffffffffff1673ffffffffffffffffffffffffffffffffffffffff16631f7b6d326040518163ffffffff167c0100000000000000000000000000000000000000000000000000000000028152600401602060405180830381600087803b158015610fed57600080fd5b505af1158015611001573d6000803e3d6000fd5b505050506040513d602081101561101757600080fd5b81019080805190602001909291905050500382604051808381526020018273ffffffffffffffffffffffffffffffffffffffff1673ffffffffffffffffffffffffffffffffffffffff1681526020019250505060405180910390a1600160009054906101000a900473ffffffffffffffffffffffffffffffffffffffff1673ffffffffffffffffffffffffffffffffffffffff16631f7b6d326040518163ffffffff167c0100000000000000000000000000000000000000000000000000000000028152600401602060405180830381600087803b1580156110f857600080fd5b505af115801561110c573d6000803e3d6000fd5b505050506040513d602081101561112257600080fd5b81019080805190602001909291905050509150509392505050565b604051610b8c8061115e83390190565b604051610c2980611cea833901905600608060405234801561001057600080fd5b50604051608080610b8c83398101806040528101908080519060200190929190805190602001909291908051906020019092919080519060200190929190505050836000806101000a81548173ffffffffffffffffffffffffffffffffffffffff021916908373ffffffffffffffffffffffffffffffffffffffff16021790555033600160006101000a81548173ffffffffffffffffffffffffffffffffffffffff021916908373ffffffffffffffffffffffffffffffffffffffff1602179055508260088160001916905550816006819055508060078190555042600281905550624f1a00600254016003819055506000600460006101000a81548160ff02191690831515021790555050505050610a5e8061012e6000396000f3006080604052600436106100e6576000357c0100000000000000000000000000000000000000000000000000000000900463ffffffff16806326d5e647146100eb57806328e671b91461010b578063325a19f1146101365780633742a9f71461016157806343d726d6146101ce5780634665096d146101e5578063673448dd1461021057806373d4a13a1461026b5780638392fe31146102ed5780638da5cb5b1461035a5780639d888e86146103b1578063a035b1fe146103dc578063b3fbc3dc14610407578063b42a346914610436578063c623674f1461048d578063c6bbd6af146104c0575b600080fd5b610109600480360381019080803590602001909291905050506104eb565b005b34801561011757600080fd5b50610120610817565b6040518082815260200191505060405180910390f35b34801561014257600080fd5b5061014b610824565b6040518082815260200191505060405180910390f35b34801561016d57600080fd5b5061018c6004803603810190808035906020019092919050505061082a565b604051808273ffffffffffffffffffffffffffffffffffffffff1673ffffffffffffffffffffffffffffffffffffffff16815260200191505060405180910390f35b3480156101da57600080fd5b506101e361086d565b005b3480156101f157600080fd5b506101fa6108fe565b6040518082815260200191505060405180910390f35b34801561021c57600080fd5b50610251600480360381019080803573ffffffffffffffffffffffffffffffffffffffff169060200190929190505050610904565b604051808215151515815260200191505060405180910390f35b34801561027757600080fd5b5061028061092a565b604051808773ffffffffffffffffffffffffffffffffffffffff1673ffffffffffffffffffffffffffffffffffffffff1681526020018660001916600019168152602001858152602001848152602001838152602001828152602001965050505050505060405180910390f35b3480156102f957600080fd5b5061031860048036038101908080359060200190929190505050610978565b604051808273ffffffffffffffffffffffffffffffffffffffff1673ffffffffffffffffffffffffffffffffffffffff16815260200191505060405180910390f35b34801561036657600080fd5b5061036f6109b6565b604051808273ffffffffffffffffffffffffffffffffffffffff1673ffffffffffffffffffffffffffffffffffffffff16815260200191505060405180910390f35b3480156103bd57600080fd5b506103c66109db565b6040518082815260200191505060405180910390f35b3480156103e857600080fd5b506103f16109e3565b6040518082815260200191505060405180910390f35b34801561041357600080fd5b5061041c6109e9565b604051808215151515815260200191505060405180910390f35b34801561044257600080fd5b5061044b6109fc565b604051808273ffffffffffffffffffffffffffffffffffffffff1673ffffffffffffffffffffffffffffffffffffffff16815260200191505060405180910390f35b34801561049957600080fd5b506104a2610a22565b60405180826000191660001916815260200191505060405180910390f35b3480156104cc57600080fd5b506104d5610a2c565b6040518082815260200191505060405180910390f35b60008060009054906101000a900473ffffffffffffffffffffffffffffffffffffffff1673ffffffffffffffffffffffffffffffffffffffff163373ffffffffffffffffffffffffffffffffffffffff161415151561054957600080fd5b6003544210151561055957600080fd5b600754821115151561056a57600080fd5b73__PurchaseLibrary_______________________6365227d153061058d6109db565b6000336040518563ffffffff167c0100000000000000000000000000000000000000000000000000000000028152600401808573ffffffffffffffffffffffffffffffffffffffff1673ffffffffffffffffffffffffffffffffffffffff168152602001848152602001836001026000191681526020018273ffffffffffffffffffffffffffffffffffffffff1673ffffffffffffffffffffffffffffffffffffffff16815260200194505050505060206040518083038186803b15801561065457600080fd5b505af4158015610668573d6000803e3d6000fd5b505050506040513d602081101561067e57600080fd5b810190808051906020019092919050505090508160076000828254039250508190555060058190806001815401808255809150509060018203906000526020600020016000909192909190916101000a81548173ffffffffffffffffffffffffffffffffffffffff021916908373ffffffffffffffffffffffffffffffffffffffff160217905550508073ffffffffffffffffffffffffffffffffffffffff16631b9265b8346040518263ffffffff167c01000000000000000000000000000000000000000000000000000000000281526004016000604051808303818588803b15801561076b57600080fd5b505af115801561077f573d6000803e3d6000fd5b50505050507f56a36f7cab0bd0ad5a828edc727be849fae684e1f97615397a1ad502d7ee636081604051808273ffffffffffffffffffffffffffffffffffffffff1673ffffffffffffffffffffffffffffffffffffffff16815260200191505060405180910390a17f91421f8b287136d63da295497519b57f83e4fab66143eeff73cd1aba3c3d71cf60405160405180910390a15050565b6000600580549050905090565b60025481565b600060058281548110151561083b57fe5b9060005260206000200160009054906101000a900473ffffffffffffffffffffffffffffffffffffffff169050919050565b6000809054906101000a900473ffffffffffffffffffffffffffffffffffffffff1673ffffffffffffffffffffffffffffffffffffffff163373ffffffffffffffffffffffffffffffffffffffff161415156108c857600080fd5b60006007819055507f91421f8b287136d63da295497519b57f83e4fab66143eeff73cd1aba3c3d71cf60405160405180910390a1565b60035481565b60006006548273ffffffffffffffffffffffffffffffffffffffff163110159050919050565b6000806000806000806000809054906101000a900473ffffffffffffffffffffffffffffffffffffffff16600854600654600754600254600354955095509550955095509550909192939495565b60058181548110151561098757fe5b906000526020600020016000915054906101000a900473ffffffffffffffffffffffffffffffffffffffff1681565b6000809054906101000a900473ffffffffffffffffffffffffffffffffffffffff1681565b600080905090565b60065481565b600460009054906101000a900460ff1681565b600160009054906101000a900473ffffffffffffffffffffffffffffffffffffffff1681565b6000600854905090565b600754815600a165627a7a723058205635471cb317504fdd83f4ebbd1ca91d16a8cd730ba877ade5263519f964d3240029608060405234801561001057600080fd5b50604051604080610c298339810180604052810190808051906020019092919080519060200190929190505050816000806101000a81548173ffffffffffffffffffffffffffffffffffffffff021916908373ffffffffffffffffffffffffffffffffffffffff16021790555033600160006101000a81548173ffffffffffffffffffffffffffffffffffffffff021916908373ffffffffffffffffffffffffffffffffffffffff16021790555060066040805190810160405280428152602001836000191681525090806001815401808255809150509060018203906000526020600020906002020160009091929091909150600082015181600001556020820151816001019060001916905550505042600281905550624f1a00600254016003819055506001600460006101000a81548160ff0219169083151502179055505050610ac7806101626000396000f3006080604052600436106100db576000357c0100000000000000000000000000000000000000000000000000000000900463ffffffff16806328e671b9146100e0578063325a19f11461010b5780633742a9f7146101365780634665096d146101a357806359c87d70146101ce578063673448dd146101f25780638392fe311461024d57806387aee00e146102ba5780638da5cb5b1461030a5780639d888e8614610361578063b3fbc3dc1461038c578063b42a3469146103bb578063c623674f14610412578063d3b7576c14610445578063f0ba844014610480575b600080fd5b3480156100ec57600080fd5b506100f56104d0565b6040518082815260200191505060405180910390f35b34801561011757600080fd5b506101206104dd565b6040518082815260200191505060405180910390f35b34801561014257600080fd5b50610161600480360381019080803590602001909291905050506104e3565b604051808273ffffffffffffffffffffffffffffffffffffffff1673ffffffffffffffffffffffffffffffffffffffff16815260200191505060405180910390f35b3480156101af57600080fd5b506101b8610526565b6040518082815260200191505060405180910390f35b6101f0600480360381019080803560001916906020019092919050505061052c565b005b3480156101fe57600080fd5b50610233600480360381019080803573ffffffffffffffffffffffffffffffffffffffff169060200190929190505050610837565b604051808215151515815260200191505060405180910390f35b34801561025957600080fd5b5061027860048036038101908080359060200190929190505050610841565b604051808273ffffffffffffffffffffffffffffffffffffffff1673ffffffffffffffffffffffffffffffffffffffff16815260200191505060405180910390f35b3480156102c657600080fd5b506102e56004803603810190808035906020019092919050505061087f565b6040518083815260200182600019166000191681526020019250505060405180910390f35b34801561031657600080fd5b5061031f6108b2565b604051808273ffffffffffffffffffffffffffffffffffffffff1673ffffffffffffffffffffffffffffffffffffffff16815260200191505060405180910390f35b34801561036d57600080fd5b506103766108d7565b6040518082815260200191505060405180910390f35b34801561039857600080fd5b506103a16108e7565b604051808215151515815260200191505060405180910390f35b3480156103c757600080fd5b506103d06108fa565b604051808273ffffffffffffffffffffffffffffffffffffffff1673ffffffffffffffffffffffffffffffffffffffff16815260200191505060405180910390f35b34801561041e57600080fd5b50610427610920565b60405180826000191660001916815260200191505060405180910390f35b34801561045157600080fd5b5061047e60048036038101908080359060200190929190803560001916906020019092919050505061094f565b005b34801561048c57600080fd5b506104ab60048036038101908080359060200190929190505050610a4d565b6040518083815260200182600019166000191681526020019250505060405180910390f35b6000600580549050905090565b60025481565b60006005828154811015156104f457fe5b9060005260206000200160009054906101000a900473ffffffffffffffffffffffffffffffffffffffff169050919050565b60035481565b60008060009054906101000a900473ffffffffffffffffffffffffffffffffffffffff1673ffffffffffffffffffffffffffffffffffffffff163373ffffffffffffffffffffffffffffffffffffffff161415151561058a57600080fd5b6003544210151561059a57600080fd5b73__PurchaseLibrary_______________________6365227d15306105bd6108d7565b85336040518563ffffffff167c0100000000000000000000000000000000000000000000000000000000028152600401808573ffffffffffffffffffffffffffffffffffffffff1673ffffffffffffffffffffffffffffffffffffffff16815260200184815260200183600019166000191681526020018273ffffffffffffffffffffffffffffffffffffffff1673ffffffffffffffffffffffffffffffffffffffff16815260200194505050505060206040518083038186803b15801561068457600080fd5b505af4158015610698573d6000803e3d6000fd5b505050506040513d60208110156106ae57600080fd5b8101908080519060200190929190505050905060058190806001815401808255809150509060018203906000526020600020016000909192909190916101000a81548173ffffffffffffffffffffffffffffffffffffffff021916908373ffffffffffffffffffffffffffffffffffffffff160217905550508073ffffffffffffffffffffffffffffffffffffffff16631b9265b8346040518263ffffffff167c01000000000000000000000000000000000000000000000000000000000281526004016000604051808303818588803b15801561078b57600080fd5b505af115801561079f573d6000803e3d6000fd5b50505050507f56a36f7cab0bd0ad5a828edc727be849fae684e1f97615397a1ad502d7ee636081604051808273ffffffffffffffffffffffffffffffffffffffff1673ffffffffffffffffffffffffffffffffffffffff16815260200191505060405180910390a17f91421f8b287136d63da295497519b57f83e4fab66143eeff73cd1aba3c3d71cf60405160405180910390a15050565b6000809050919050565b60058181548110151561085057fe5b906000526020600020016000915054906101000a900473ffffffffffffffffffffffffffffffffffffffff1681565b60068181548110151561088e57fe5b90600052602060002090600202016000915090508060000154908060010154905082565b6000809054906101000a900473ffffffffffffffffffffffffffffffffffffffff1681565b6000600160068054905003905090565b600460009054906101000a900460ff1681565b600160009054906101000a900473ffffffffffffffffffffffffffffffffffffffff1681565b6000600661092c6108d7565b81548110151561093857fe5b906000526020600020906002020160010154905090565b6000809054906101000a900473ffffffffffffffffffffffffffffffffffffffff1673ffffffffffffffffffffffffffffffffffffffff163373ffffffffffffffffffffffffffffffffffffffff161415156109aa57600080fd5b6109b26108d7565b821415610a49576006604080519081016040528042815260200183600019168152509080600181540180825580915050906001820390600052602060002090600202016000909192909190915060008201518160000155602082015181600101906000191690555050507f91421f8b287136d63da295497519b57f83e4fab66143eeff73cd1aba3c3d71cf60405160405180910390a15b5050565b600080600683815481101515610a5f57fe5b906000526020600020906002020160000154600684815481101515610a8057fe5b906000526020600020906002020160010154915091509150915600a165627a7a723058207105c793760c53301eb03830cd0912475f7ad59852e0d21118f6796a8e95d47f0029a165627a7a723058209841b7857f8921718ea708e04e4e9a10f131504105ccd9b9099fffc3ed76e32c0029",
  "source": "pragma solidity 0.4.24;\n\n/// @title Publication\n/// @dev Used to keep marketplace of publications for buyers and sellers\n/// @author Matt Liu <matt@originprotocol.com>, Josh Fraser <josh@originprotocol.com>, Stan James <stan@originprotocol.com>\n\nimport \"./UnitPublication.sol\";\nimport \"./FractionalPublication.sol\";\nimport \"./PublicationsRegistryStorage.sol\";\n\ncontract PublicationsRegistry {\n\n  /*\n   * Events\n   */\n\n  event NewPublication(uint _index, address _address);\n\n  /*\n   * Storage\n   */\n\n  address public owner;\n\n  PublicationsRegistryStorage public publicationStorage;\n\n  /*\n   * Public functions\n   */\n\n  constructor(PublicationsRegistryStorage _publicationStorage)\n    public\n  {\n    // Defines origin admin address - may be removed for public deployment\n    owner = msg.sender;\n    publicationStorage = _publicationStorage;\n  }\n\n  /// @dev publicationsLength(): Return number of publications\n  function publicationsLength()\n    public\n    constant\n    returns (uint)\n  {\n      return publicationStorage.length();\n  }\n\n  /// @dev getPublicationAddress(): Return publication address\n  /// @param _index the index of the publication\n  function getPublicationAddress(uint _index)\n    public\n    constant\n    returns (address)\n  {\n    return publicationStorage.publications(_index);\n  }\n\n  /// @dev create(): Create a new publication\n  /// @param _ipfsHash Hash of data on ipfsHash\n  /// @param _price Price of unit in wei\n  /// @param _unitsAvailable Number of units availabe for sale at start\n  ///\n  /// Sample Remix invocation:\n  /// [\"0x01\",\"0x7d\",\"0xfd\",\"0x85\",\"0xd4\",\"0xf6\",\"0xcb\",\"0x4d\",\"0xcd\",\"0x71\",\"0x5a\",\"0x88\",\"0x10\",\"0x1f\",\"0x7b\",\"0x1f\",\"0x06\",\"0xcd\",\"0x1e\",\"0x00\",\"0x9b\",\"0x23\",\"0x27\",\"0xa0\",\"0x80\",\"0x9d\",\"0x01\",\"0xeb\",\"0x9c\",\"0x91\",\"0xf2\",\"0x31\"],\"3140000000000000000\",42\n  function create(\n    bytes32 _ipfsHash,\n    uint _price,\n    uint _unitsAvailable\n  )\n    public\n    returns (uint)\n  {\n    Publication newPublication = new UnitPublication(msg.sender, _ipfsHash, _price, _unitsAvailable);\n    publicationStorage.add(newPublication);\n    emit NewPublication((publicationStorage.length())-1, address(newPublication));\n    return publicationStorage.length();\n  }\n\n  /// @dev createFractional(): Create a new fractional publication\n  /// @param _ipfsHash Hash of data on ipfsHash\n  function createFractional(\n    bytes32 _ipfsHash\n  )\n    public\n    returns (uint)\n  {\n    Publication newPublication = new FractionalPublication(msg.sender, _ipfsHash);\n    publicationStorage.add(newPublication);\n    emit NewPublication((publicationStorage.length())-1, address(newPublication));\n    return publicationStorage.length();\n  }\n\n  /// @dev createOnBehalf(): Create a new publication with specified creator\n  ///                        Used for migrating from old contracts (admin only)\n  /// @param _ipfsHash Hash of data on ipfsHash\n  /// @param _price Price of unit in wei\n  /// @param _unitsAvailable Number of units availabe for sale at start\n  /// @param _creatorAddress Address of account to be the creator\n  function createOnBehalf(\n    bytes32 _ipfsHash,\n    uint _price,\n    uint _unitsAvailable,\n    address _creatorAddress\n  )\n    public\n    returns (uint)\n  {\n    require (msg.sender == owner, \"Only callable by registry owner\");\n    Publication newPublication = new UnitPublication(_creatorAddress, _ipfsHash, _price, _unitsAvailable);\n    publicationStorage.add(newPublication);\n    emit NewPublication(publicationStorage.length()-1, address(newPublication));\n    return publicationStorage.length();\n  }\n\n  // @dev isTrustedPublication(): Checks to see if a publication belongs to\n  //                          this registry, and thus trusting that\n  //                          it was created with good bytecode and\n  //                          the proper initialization was completed.\n  function isTrustedPublication(\n    address _publicationAddress\n  )\n    public\n    view\n    returns(bool)\n  {\n    return publicationStorage.isTrustedPublication(_publicationAddress);\n  }\n}\n",
  "sourcePath": "/home/alejandro/workspace/synapseslabs/synapses-contracts/contracts/PublicationsRegistry.sol",
  "compiler": {
    "name": "solc",
    "version": "0.4.24+commit.e67f0147.Emscripten.clang"
  },
  "schemaVersion": "2.0.0",
  "updatedAt": "2018-08-07T16:24:04.344Z"
}