{
  "contractName": "PublicationsRegistryStorage",
  "abi": [
    {
      "constant": true,
      "inputs": [],
      "name": "activeRegistry",
      "outputs": [
        {
          "name": "",
          "type": "address"
        }
      ],
      "payable": false,
      "stateMutability": "view",
      "type": "function"
    },
    {
      "constant": true,
      "inputs": [
        {
          "name": "",
          "type": "uint256"
        }
      ],
      "name": "publications",
      "outputs": [
        {
          "name": "",
          "type": "address"
        }
      ],
      "payable": false,
      "stateMutability": "view",
      "type": "function"
    },
    {
      "constant": true,
      "inputs": [
        {
          "name": "",
          "type": "address"
        }
      ],
      "name": "publicationsMap",
      "outputs": [
        {
          "name": "",
          "type": "bool"
        }
      ],
      "payable": false,
      "stateMutability": "view",
      "type": "function"
    },
    {
      "constant": true,
      "inputs": [],
      "name": "owner",
      "outputs": [
        {
          "name": "",
          "type": "address"
        }
      ],
      "payable": false,
      "stateMutability": "view",
      "type": "function"
    },
    {
      "inputs": [],
      "payable": false,
      "stateMutability": "nonpayable",
      "type": "constructor"
    },
    {
      "anonymous": false,
      "inputs": [
        {
          "indexed": false,
          "name": "registryAddress",
          "type": "address"
        }
      ],
      "name": "RegistryChange",
      "type": "event"
    },
    {
      "constant": false,
      "inputs": [
        {
          "name": "_owner",
          "type": "address"
        }
      ],
      "name": "setOwner",
      "outputs": [],
      "payable": false,
      "stateMutability": "nonpayable",
      "type": "function"
    },
    {
      "constant": false,
      "inputs": [
        {
          "name": "_newRegistry",
          "type": "address"
        }
      ],
      "name": "setActiveRegistry",
      "outputs": [],
      "payable": false,
      "stateMutability": "nonpayable",
      "type": "function"
    },
    {
      "constant": false,
      "inputs": [
        {
          "name": "_publicationAddress",
          "type": "address"
        }
      ],
      "name": "add",
      "outputs": [
        {
          "name": "",
          "type": "uint256"
        }
      ],
      "payable": false,
      "stateMutability": "nonpayable",
      "type": "function"
    },
    {
      "constant": true,
      "inputs": [],
      "name": "length",
      "outputs": [
        {
          "name": "",
          "type": "uint256"
        }
      ],
      "payable": false,
      "stateMutability": "view",
      "type": "function"
    },
    {
      "constant": true,
      "inputs": [
        {
          "name": "_publicationAddress",
          "type": "address"
        }
      ],
      "name": "isTrustedPublication",
      "outputs": [
        {
          "name": "",
          "type": "bool"
        }
      ],
      "payable": false,
      "stateMutability": "view",
      "type": "function"
    }
  ],
  "bytecode": "0x608060405234801561001057600080fd5b50336000806101000a81548173ffffffffffffffffffffffffffffffffffffffff021916908373ffffffffffffffffffffffffffffffffffffffff16021790555061084c806100606000396000f300608060405260043610610099576000357c0100000000000000000000000000000000000000000000000000000000900463ffffffff1680630a3b0a4f1461009e5780630b44c719146100f557806313af40351461014c5780631f7b6d321461018f5780631fd5bbab146101ba5780632c0f28041461022757806385f108af146102825780638da5cb5b146102dd57806396ee511014610334575b600080fd5b3480156100aa57600080fd5b506100df600480360381019080803573ffffffffffffffffffffffffffffffffffffffff169060200190929190505050610377565b6040518082815260200191505060405180910390f35b34801561010157600080fd5b5061010a6104fa565b604051808273ffffffffffffffffffffffffffffffffffffffff1673ffffffffffffffffffffffffffffffffffffffff16815260200191505060405180910390f35b34801561015857600080fd5b5061018d600480360381019080803573ffffffffffffffffffffffffffffffffffffffff169060200190929190505050610520565b005b34801561019b57600080fd5b506101a46105be565b6040518082815260200191505060405180910390f35b3480156101c657600080fd5b506101e5600480360381019080803590602001909291905050506105cb565b604051808273ffffffffffffffffffffffffffffffffffffffff1673ffffffffffffffffffffffffffffffffffffffff16815260200191505060405180910390f35b34801561023357600080fd5b50610268600480360381019080803573ffffffffffffffffffffffffffffffffffffffff169060200190929190505050610609565b604051808215151515815260200191505060405180910390f35b34801561028e57600080fd5b506102c3600480360381019080803573ffffffffffffffffffffffffffffffffffffffff169060200190929190505050610629565b604051808215151515815260200191505060405180910390f35b3480156102e957600080fd5b506102f261067f565b604051808273ffffffffffffffffffffffffffffffffffffffff1673ffffffffffffffffffffffffffffffffffffffff16815260200191505060405180910390f35b34801561034057600080fd5b50610375600480360381019080803573ffffffffffffffffffffffffffffffffffffffff1690602001909291905050506106a4565b005b6000600160009054906101000a900473ffffffffffffffffffffffffffffffffffffffff1673ffffffffffffffffffffffffffffffffffffffff163373ffffffffffffffffffffffffffffffffffffffff16148061042157506000809054906101000a900473ffffffffffffffffffffffffffffffffffffffff1673ffffffffffffffffffffffffffffffffffffffff163373ffffffffffffffffffffffffffffffffffffffff16145b151561042c57600080fd5b60028290806001815401808255809150509060018203906000526020600020016000909192909190916101000a81548173ffffffffffffffffffffffffffffffffffffffff021916908373ffffffffffffffffffffffffffffffffffffffff160217905550506001600360008473ffffffffffffffffffffffffffffffffffffffff1673ffffffffffffffffffffffffffffffffffffffff16815260200190815260200160002060006101000a81548160ff0219169083151502179055506001600280549050039050919050565b600160009054906101000a900473ffffffffffffffffffffffffffffffffffffffff1681565b6000809054906101000a900473ffffffffffffffffffffffffffffffffffffffff1673ffffffffffffffffffffffffffffffffffffffff163373ffffffffffffffffffffffffffffffffffffffff1614151561057b57600080fd5b806000806101000a81548173ffffffffffffffffffffffffffffffffffffffff021916908373ffffffffffffffffffffffffffffffffffffffff16021790555050565b6000600280549050905090565b6002818154811015156105da57fe5b906000526020600020016000915054906101000a900473ffffffffffffffffffffffffffffffffffffffff1681565b60036020528060005260406000206000915054906101000a900460ff1681565b6000600360008373ffffffffffffffffffffffffffffffffffffffff1673ffffffffffffffffffffffffffffffffffffffff16815260200190815260200160002060009054906101000a900460ff169050919050565b6000809054906101000a900473ffffffffffffffffffffffffffffffffffffffff1681565b600160009054906101000a900473ffffffffffffffffffffffffffffffffffffffff1673ffffffffffffffffffffffffffffffffffffffff163373ffffffffffffffffffffffffffffffffffffffff16148061074c57506000809054906101000a900473ffffffffffffffffffffffffffffffffffffffff1673ffffffffffffffffffffffffffffffffffffffff163373ffffffffffffffffffffffffffffffffffffffff16145b151561075757600080fd5b80600160006101000a81548173ffffffffffffffffffffffffffffffffffffffff021916908373ffffffffffffffffffffffffffffffffffffffff1602179055507f5217946a1da07de64b3844039ef4846e81015e1130f212235a450aa822e86e55600160009054906101000a900473ffffffffffffffffffffffffffffffffffffffff16604051808273ffffffffffffffffffffffffffffffffffffffff1673ffffffffffffffffffffffffffffffffffffffff16815260200191505060405180910390a1505600a165627a7a723058204fcfa19ca03a5e2a566c0cfc1753ab1c63d71f597d646bfe5760d8060ec3c6670029",
  "source": "pragma solidity 0.4.24;\n\n\n// PublicationsRegistryStorage provides long term storage for the replacable\n// PublicationRegistry.\n//\n// This PublicationsRegistryStorage provides only the ability to add new Publication\n// contracts to storage. There is no provision for deleting them.\ncontract PublicationsRegistryStorage {\n\n  /*\n  * Events\n  */\n\n  event RegistryChange(address registryAddress);\n\n  /*\n  * Storage\n  */\n\n  address public owner;\n  address public activeRegistry;\n  address[] public publications;\n  mapping(address => bool) public publicationsMap;\n\n  /*\n  * Modifiers\n  */\n\n  modifier isOwner() {\n    require(msg.sender == owner);\n    _;\n  }\n\n  modifier isRegistryOrOwner() {\n    require(\n      msg.sender == activeRegistry || msg.sender == owner\n    );\n    _;\n  }\n\n  /*\n  * Methods\n  */\n\n  constructor()\n    public\n  {\n    owner = msg.sender;\n  }\n\n  /*\n  * Ownership Methods\n  */\n\n  function setOwner(address _owner)\n    public\n    isOwner()\n  {\n    owner = _owner;\n  }\n\n  function setActiveRegistry(address _newRegistry)\n    public\n    isRegistryOrOwner()\n  {\n    activeRegistry = _newRegistry;\n    emit RegistryChange(activeRegistry);\n  }\n\n  /*\n  * Publication Storage Methods\n  */\n\n  function add(address _publicationAddress)\n    public\n    isRegistryOrOwner()\n    returns (uint)\n  {\n    publications.push(_publicationAddress);\n    publicationsMap[_publicationAddress] = true;\n    return (publications.length-1);\n  }\n\n  function length()\n    public\n    view\n    returns (uint)\n  {\n    return publications.length;\n  }\n\n  function isTrustedPublication(address _publicationAddress)\n    public\n    view\n    returns (bool)\n  {\n    return publicationsMap[_publicationAddress];\n  }\n}",
  "sourcePath": "/home/alejandro/workspace/synapseslabs/synapses-contracts/contracts/PublicationsRegistryStorage.sol",
  "compiler": {
    "name": "solc",
    "version": "0.4.24+commit.e67f0147.Emscripten.clang"
  },
  "schemaVersion": "2.0.0",
  "updatedAt": "2018-08-07T16:24:04.342Z"
}