{
  "contractName": "PurchaseLibrary",
  "abi": [
    {
      "constant": false,
      "inputs": [
        {
          "name": "_publication",
          "type": "Publication"
        },
        {
          "name": "_publicationVersion",
          "type": "uint256"
        },
        {
          "name": "_ipfsHash",
          "type": "bytes32"
        },
        {
          "name": "_buyer",
          "type": "address"
        }
      ],
      "name": "newPurchase",
      "outputs": [
        {
          "name": "purchase",
          "type": "Purchase"
        }
      ],
      "payable": false,
      "stateMutability": "nonpayable",
      "type": "function"
    }
  ],
  "bytecode": "0x611764610030600b82828239805160001a6073146000811461002057610022565bfe5b5030600052607381538281f3007300000000000000000000000000000000000000003014608060405260043610610058576000357c0100000000000000000000000000000000000000000000000000000000900463ffffffff16806365227d151461005d575b600080fd5b81801561006957600080fd5b506100d6600480360381019080803573ffffffffffffffffffffffffffffffffffffffff169060200190929190803590602001909291908035600019169060200190929190803573ffffffffffffffffffffffffffffffffffffffff169060200190929190505050610118565b604051808273ffffffffffffffffffffffffffffffffffffffff1673ffffffffffffffffffffffffffffffffffffffff16815260200191505060405180910390f35b6000848484846101266101cc565b808573ffffffffffffffffffffffffffffffffffffffff1673ffffffffffffffffffffffffffffffffffffffff16815260200184815260200183600019166000191681526020018273ffffffffffffffffffffffffffffffffffffffff1673ffffffffffffffffffffffffffffffffffffffff168152602001945050505050604051809103906000f0801580156101c1573d6000803e3d6000fd5b509050949350505050565b60405161155c806101dd833901905600608060405260008060006101000a81548160ff0219169083600881111561002257fe5b021790555034801561003357600080fd5b5060405160808061155c8339810180604052810190808051906020019092919080519060200190929190805190602001909291908051906020019092919050505080600160006101000a81548173ffffffffffffffffffffffffffffffffffffffff021916908373ffffffffffffffffffffffffffffffffffffffff16021790555083600060016101000a81548173ffffffffffffffffffffffffffffffffffffffff021916908373ffffffffffffffffffffffffffffffffffffffff160217905550826004819055508160058160001916905550426002819055507f297fa9ffcce4a8f1e427986966e131669169a104212e72d48d20e935391873396000809054906101000a900460ff166040518082600881111561014f57fe5b60ff16815260200191505060405180910390a1505050506113e7806101756000396000f3006080604052600436106100db576000357c0100000000000000000000000000000000000000000000000000000000900463ffffffff1680631b9265b8146100e0578063325a19f1146100ea57806337694584146101155780634db092b41461012c5780634fd6137c14610157578063546be7b51461016e5780636848731a146101ac5780637150d8ae146101d757806373d4a13a1461022e57806396e95191146102ea578063a3c0ac1014610341578063c040e6b814610358578063c623674f14610391578063e025904f146103c4578063f96182cf146103db575b600080fd5b6100e8610419565b005b3480156100f657600080fd5b506100ff610627565b6040518082815260200191505060405180910390f35b34801561012157600080fd5b5061012a61062d565b005b34801561013857600080fd5b5061014161076d565b6040518082815260200191505060405180910390f35b34801561016357600080fd5b5061016c610773565b005b34801561017a57600080fd5b506101aa600480360381019080803560ff1690602001909291908035600019169060200190929190505050610925565b005b3480156101b857600080fd5b506101c1610b91565b6040518082815260200191505060405180910390f35b3480156101e357600080fd5b506101ec610b97565b604051808273ffffffffffffffffffffffffffffffffffffffff1673ffffffffffffffffffffffffffffffffffffffff16815260200191505060405180910390f35b34801561023a57600080fd5b50610243610bbd565b6040518087600881111561025357fe5b60ff1681526020018673ffffffffffffffffffffffffffffffffffffffff1673ffffffffffffffffffffffffffffffffffffffff1681526020018573ffffffffffffffffffffffffffffffffffffffff1673ffffffffffffffffffffffffffffffffffffffff1681526020018481526020018381526020018260001916600019168152602001965050505050505060405180910390f35b3480156102f657600080fd5b506102ff610c31565b604051808273ffffffffffffffffffffffffffffffffffffffff1673ffffffffffffffffffffffffffffffffffffffff16815260200191505060405180910390f35b34801561034d57600080fd5b50610356610c57565b005b34801561036457600080fd5b5061036d610d97565b6040518082600881111561037d57fe5b60ff16815260200191505060405180910390f35b34801561039d57600080fd5b506103a6610def565b60405180826000191660001916815260200191505060405180910390f35b3480156103d057600080fd5b506103d9610df5565b005b3480156103e757600080fd5b50610417600480360381019080803560ff1690602001909291908035600019169060200190929190505050610f29565b005b600080600881111561042757fe5b61042f610d97565b600881111561043a57fe5b14151561044657600080fd5b600060019054906101000a900473ffffffffffffffffffffffffffffffffffffffff1673ffffffffffffffffffffffffffffffffffffffff1663b3fbc3dc6040518163ffffffff167c0100000000000000000000000000000000000000000000000000000000028152600401602060405180830381600087803b1580156104cc57600080fd5b505af11580156104e0573d6000803e3d6000fd5b505050506040513d60208110156104f657600080fd5b81019080805190602001909291905050501561051b576105166001611351565b610624565b600060019054906101000a900473ffffffffffffffffffffffffffffffffffffffff1673ffffffffffffffffffffffffffffffffffffffff1663673448dd306040518263ffffffff167c0100000000000000000000000000000000000000000000000000000000028152600401808273ffffffffffffffffffffffffffffffffffffffff1673ffffffffffffffffffffffffffffffffffffffff168152602001915050602060405180830381600087803b1580156105d857600080fd5b505af11580156105ec573d6000803e3d6000fd5b505050506040513d602081101561060257600080fd5b810190808051906020019092919050505015610623576106226003611351565b5b5b50565b60025481565b600060019054906101000a900473ffffffffffffffffffffffffffffffffffffffff1673ffffffffffffffffffffffffffffffffffffffff16638da5cb5b6040518163ffffffff167c0100000000000000000000000000000000000000000000000000000000028152600401602060405180830381600087803b1580156106b357600080fd5b505af11580156106c7573d6000803e3d6000fd5b505050506040513d60208110156106dd57600080fd5b810190808051906020019092919050505073ffffffffffffffffffffffffffffffffffffffff163373ffffffffffffffffffffffffffffffffffffffff1614151561072757600080fd5b600180600881111561073557fe5b61073d610d97565b600881111561074857fe5b14151561075457600080fd5b621baf80420160038190555061076a6004611351565b50565b60035481565b600160009054906101000a900473ffffffffffffffffffffffffffffffffffffffff1673ffffffffffffffffffffffffffffffffffffffff163373ffffffffffffffffffffffffffffffffffffffff1614806108ba5750600060019054906101000a900473ffffffffffffffffffffffffffffffffffffffff1673ffffffffffffffffffffffffffffffffffffffff16638da5cb5b6040518163ffffffff167c0100000000000000000000000000000000000000000000000000000000028152600401602060405180830381600087803b15801561085057600080fd5b505af1158015610864573d6000803e3d6000fd5b505050506040513d602081101561087a57600080fd5b810190808051906020019092919050505073ffffffffffffffffffffffffffffffffffffffff163373ffffffffffffffffffffffffffffffffffffffff16145b15156108c557600080fd5b600460088111156108d257fe5b6108da610d97565b60088111156108e557fe5b148061090e5750600560088111156108f957fe5b610901610d97565b600881111561090c57fe5b145b151561091957600080fd5b6109236006611351565b565b600160009054906101000a900473ffffffffffffffffffffffffffffffffffffffff1673ffffffffffffffffffffffffffffffffffffffff163373ffffffffffffffffffffffffffffffffffffffff1614151561098157600080fd5b600480600881111561098f57fe5b610997610d97565b60088111156109a257fe5b1415156109ae57600080fd5b60018360ff16101515156109c157600080fd5b60058360ff16111515156109d457600080fd5b6109de6005611351565b7f8c0b60a2085201dd932be0d3d6a63cccfb7d8ba44b923a03d2ff02aaa6dfcfcc600160009054906101000a900473ffffffffffffffffffffffffffffffffffffffff16600060019054906101000a900473ffffffffffffffffffffffffffffffffffffffff1673ffffffffffffffffffffffffffffffffffffffff16638da5cb5b6040518163ffffffff167c0100000000000000000000000000000000000000000000000000000000028152600401602060405180830381600087803b158015610aa857600080fd5b505af1158015610abc573d6000803e3d6000fd5b505050506040513d6020811015610ad257600080fd5b810190808051906020019092919050505060018686604051808673ffffffffffffffffffffffffffffffffffffffff1673ffffffffffffffffffffffffffffffffffffffff1681526020018573ffffffffffffffffffffffffffffffffffffffff1673ffffffffffffffffffffffffffffffffffffffff168152602001846001811115610b5b57fe5b60ff1681526020018360ff1660ff16815260200182600019166000191681526020019550505050505060405180910390a1505050565b60045481565b600160009054906101000a900473ffffffffffffffffffffffffffffffffffffffff1681565b600080600080600080610bce610d97565b600060019054906101000a900473ffffffffffffffffffffffffffffffffffffffff16600160009054906101000a900473ffffffffffffffffffffffffffffffffffffffff16600254600354600554955095509550955095509550909192939495565b600060019054906101000a900473ffffffffffffffffffffffffffffffffffffffff1681565b600060019054906101000a900473ffffffffffffffffffffffffffffffffffffffff1673ffffffffffffffffffffffffffffffffffffffff16638da5cb5b6040518163ffffffff167c0100000000000000000000000000000000000000000000000000000000028152600401602060405180830381600087803b158015610cdd57600080fd5b505af1158015610cf1573d6000803e3d6000fd5b505050506040513d6020811015610d0757600080fd5b810190808051906020019092919050505073ffffffffffffffffffffffffffffffffffffffff163373ffffffffffffffffffffffffffffffffffffffff16141515610d5157600080fd5b6003806008811115610d5f57fe5b610d67610d97565b6008811115610d7257fe5b141515610d7e57600080fd5b621baf804201600381905550610d946004611351565b50565b600060046008811115610da657fe5b6000809054906101000a900460ff166008811115610dc057fe5b1415610dda57600354421115610dd95760059050610dec565b5b6000809054906101000a900460ff1690505b90565b60055481565b600060019054906101000a900473ffffffffffffffffffffffffffffffffffffffff1673ffffffffffffffffffffffffffffffffffffffff16638da5cb5b6040518163ffffffff167c0100000000000000000000000000000000000000000000000000000000028152600401602060405180830381600087803b158015610e7b57600080fd5b505af1158015610e8f573d6000803e3d6000fd5b505050506040513d6020811015610ea557600080fd5b810190808051906020019092919050505073ffffffffffffffffffffffffffffffffffffffff163373ffffffffffffffffffffffffffffffffffffffff16141515610eef57600080fd5b6001806008811115610efd57fe5b610f05610d97565b6008811115610f1057fe5b141515610f1c57600080fd5b610f266002611351565b50565b600060019054906101000a900473ffffffffffffffffffffffffffffffffffffffff1673ffffffffffffffffffffffffffffffffffffffff16638da5cb5b6040518163ffffffff167c0100000000000000000000000000000000000000000000000000000000028152600401602060405180830381600087803b158015610faf57600080fd5b505af1158015610fc3573d6000803e3d6000fd5b505050506040513d6020811015610fd957600080fd5b810190808051906020019092919050505073ffffffffffffffffffffffffffffffffffffffff163373ffffffffffffffffffffffffffffffffffffffff1614151561102357600080fd5b600580600881111561103157fe5b611039610d97565b600881111561104457fe5b14151561105057600080fd5b60018360ff161015151561106357600080fd5b60058360ff161115151561107657600080fd5b6110806008611351565b7f8c0b60a2085201dd932be0d3d6a63cccfb7d8ba44b923a03d2ff02aaa6dfcfcc600060019054906101000a900473ffffffffffffffffffffffffffffffffffffffff1673ffffffffffffffffffffffffffffffffffffffff16638da5cb5b6040518163ffffffff167c0100000000000000000000000000000000000000000000000000000000028152600401602060405180830381600087803b15801561112757600080fd5b505af115801561113b573d6000803e3d6000fd5b505050506040513d602081101561115157600080fd5b8101908080519060200190929190505050600160009054906101000a900473ffffffffffffffffffffffffffffffffffffffff1660008686604051808673ffffffffffffffffffffffffffffffffffffffff1673ffffffffffffffffffffffffffffffffffffffff1681526020018573ffffffffffffffffffffffffffffffffffffffff1673ffffffffffffffffffffffffffffffffffffffff1681526020018460018111156111fd57fe5b60ff1681526020018360ff1660ff16815260200182600019166000191681526020019550505050505060405180910390a1600060019054906101000a900473ffffffffffffffffffffffffffffffffffffffff1673ffffffffffffffffffffffffffffffffffffffff16638da5cb5b6040518163ffffffff167c0100000000000000000000000000000000000000000000000000000000028152600401602060405180830381600087803b1580156112b457600080fd5b505af11580156112c8573d6000803e3d6000fd5b505050506040513d60208110156112de57600080fd5b810190808051906020019092919050505073ffffffffffffffffffffffffffffffffffffffff166108fc3073ffffffffffffffffffffffffffffffffffffffff16319081150290604051600060405180830381858888f1935050505015801561134b573d6000803e3d6000fd5b50505050565b806000806101000a81548160ff0219169083600881111561136e57fe5b02179055507f297fa9ffcce4a8f1e427986966e131669169a104212e72d48d20e9353918733981604051808260088111156113a557fe5b60ff16815260200191505060405180910390a1505600a165627a7a723058206c207d12ce2afdfe95976afaba61a6f75fe1a99cf60363524856de167c0ff3ca0029a165627a7a723058207ea2c6317696ae570171ead00895547c5cfb29c981d49e121745f5b5cea0650f0029",
  "source": "pragma solidity 0.4.24;\n\n/// @title PurchaseLibrary\n/// @dev An collection of helper tools for a purchase\n\nimport \"./Purchase.sol\";\nimport \"./Publication.sol\";\n\nlibrary PurchaseLibrary {\n\n    function newPurchase(Publication _publication, uint _publicationVersion, bytes32 _ipfsHash, address _buyer)\n    public\n    returns (Purchase purchase)\n    {\n        purchase = new Purchase(_publication, _publicationVersion, _ipfsHash, _buyer);\n    }\n\n}\n",
  "sourcePath": "/home/alejandro/workspace/synapseslabs/synapses-contracts/contracts/PurchaseLibrary.sol",
  "compiler": {
    "name": "solc",
    "version": "0.4.24+commit.e67f0147.Emscripten.clang"
  },
  "schemaVersion": "2.0.0",
  "updatedAt": "2018-08-07T16:24:04.351Z"
}