{
  "contractName": "UnitPublication",
  "abi": [
    {
      "constant": true,
      "inputs": [],
      "name": "purchasesLength",
      "outputs": [
        {
          "name": "",
          "type": "uint256"
        }
      ],
      "payable": false,
      "stateMutability": "view",
      "type": "function"
    },
    {
      "constant": true,
      "inputs": [],
      "name": "created",
      "outputs": [
        {
          "name": "",
          "type": "uint256"
        }
      ],
      "payable": false,
      "stateMutability": "view",
      "type": "function"
    },
    {
      "constant": true,
      "inputs": [
        {
          "name": "_index",
          "type": "uint256"
        }
      ],
      "name": "getPurchase",
      "outputs": [
        {
          "name": "",
          "type": "address"
        }
      ],
      "payable": false,
      "stateMutability": "view",
      "type": "function"
    },
    {
      "constant": true,
      "inputs": [],
      "name": "expiration",
      "outputs": [
        {
          "name": "",
          "type": "uint256"
        }
      ],
      "payable": false,
      "stateMutability": "view",
      "type": "function"
    },
    {
      "constant": true,
      "inputs": [
        {
          "name": "",
          "type": "uint256"
        }
      ],
      "name": "purchases",
      "outputs": [
        {
          "name": "",
          "type": "address"
        }
      ],
      "payable": false,
      "stateMutability": "view",
      "type": "function"
    },
    {
      "constant": true,
      "inputs": [],
      "name": "owner",
      "outputs": [
        {
          "name": "",
          "type": "address"
        }
      ],
      "payable": false,
      "stateMutability": "view",
      "type": "function"
    },
    {
      "constant": true,
      "inputs": [],
      "name": "price",
      "outputs": [
        {
          "name": "",
          "type": "uint256"
        }
      ],
      "payable": false,
      "stateMutability": "view",
      "type": "function"
    },
    {
      "constant": true,
      "inputs": [],
      "name": "needsSellerApproval",
      "outputs": [
        {
          "name": "",
          "type": "bool"
        }
      ],
      "payable": false,
      "stateMutability": "view",
      "type": "function"
    },
    {
      "constant": true,
      "inputs": [],
      "name": "publicationRegistry",
      "outputs": [
        {
          "name": "",
          "type": "address"
        }
      ],
      "payable": false,
      "stateMutability": "view",
      "type": "function"
    },
    {
      "constant": true,
      "inputs": [],
      "name": "unitsAvailable",
      "outputs": [
        {
          "name": "",
          "type": "uint256"
        }
      ],
      "payable": false,
      "stateMutability": "view",
      "type": "function"
    },
    {
      "inputs": [
        {
          "name": "_owner",
          "type": "address"
        },
        {
          "name": "_ipfsHash",
          "type": "bytes32"
        },
        {
          "name": "_price",
          "type": "uint256"
        },
        {
          "name": "_unitsAvailable",
          "type": "uint256"
        }
      ],
      "payable": false,
      "stateMutability": "nonpayable",
      "type": "constructor"
    },
    {
      "anonymous": false,
      "inputs": [
        {
          "indexed": false,
          "name": "_purchaseContract",
          "type": "address"
        }
      ],
      "name": "PublicationPurchased",
      "type": "event"
    },
    {
      "anonymous": false,
      "inputs": [],
      "name": "PublicationChange",
      "type": "event"
    },
    {
      "constant": true,
      "inputs": [],
      "name": "data",
      "outputs": [
        {
          "name": "_owner",
          "type": "address"
        },
        {
          "name": "_ipfsHash",
          "type": "bytes32"
        },
        {
          "name": "_price",
          "type": "uint256"
        },
        {
          "name": "_unitsAvailable",
          "type": "uint256"
        },
        {
          "name": "_created",
          "type": "uint256"
        },
        {
          "name": "_expiration",
          "type": "uint256"
        }
      ],
      "payable": false,
      "stateMutability": "view",
      "type": "function"
    },
    {
      "constant": false,
      "inputs": [
        {
          "name": "_unitsToBuy",
          "type": "uint256"
        }
      ],
      "name": "buyPublication",
      "outputs": [],
      "payable": true,
      "stateMutability": "payable",
      "type": "function"
    },
    {
      "constant": false,
      "inputs": [],
      "name": "close",
      "outputs": [],
      "payable": false,
      "stateMutability": "nonpayable",
      "type": "function"
    },
    {
      "constant": true,
      "inputs": [
        {
          "name": "_purchase",
          "type": "address"
        }
      ],
      "name": "isApproved",
      "outputs": [
        {
          "name": "",
          "type": "bool"
        }
      ],
      "payable": false,
      "stateMutability": "view",
      "type": "function"
    },
    {
      "constant": true,
      "inputs": [],
      "name": "currentVersion",
      "outputs": [
        {
          "name": "",
          "type": "uint256"
        }
      ],
      "payable": false,
      "stateMutability": "view",
      "type": "function"
    },
    {
      "constant": true,
      "inputs": [],
      "name": "ipfsHash",
      "outputs": [
        {
          "name": "",
          "type": "bytes32"
        }
      ],
      "payable": false,
      "stateMutability": "view",
      "type": "function"
    }
  ],
  "bytecode": "0x608060405234801561001057600080fd5b50604051608080610b8c83398101806040528101908080519060200190929190805190602001909291908051906020019092919080519060200190929190505050836000806101000a81548173ffffffffffffffffffffffffffffffffffffffff021916908373ffffffffffffffffffffffffffffffffffffffff16021790555033600160006101000a81548173ffffffffffffffffffffffffffffffffffffffff021916908373ffffffffffffffffffffffffffffffffffffffff1602179055508260088160001916905550816006819055508060078190555042600281905550624f1a00600254016003819055506000600460006101000a81548160ff02191690831515021790555050505050610a5e8061012e6000396000f3006080604052600436106100e6576000357c0100000000000000000000000000000000000000000000000000000000900463ffffffff16806326d5e647146100eb57806328e671b91461010b578063325a19f1146101365780633742a9f71461016157806343d726d6146101ce5780634665096d146101e5578063673448dd1461021057806373d4a13a1461026b5780638392fe31146102ed5780638da5cb5b1461035a5780639d888e86146103b1578063a035b1fe146103dc578063b3fbc3dc14610407578063b42a346914610436578063c623674f1461048d578063c6bbd6af146104c0575b600080fd5b610109600480360381019080803590602001909291905050506104eb565b005b34801561011757600080fd5b50610120610817565b6040518082815260200191505060405180910390f35b34801561014257600080fd5b5061014b610824565b6040518082815260200191505060405180910390f35b34801561016d57600080fd5b5061018c6004803603810190808035906020019092919050505061082a565b604051808273ffffffffffffffffffffffffffffffffffffffff1673ffffffffffffffffffffffffffffffffffffffff16815260200191505060405180910390f35b3480156101da57600080fd5b506101e361086d565b005b3480156101f157600080fd5b506101fa6108fe565b6040518082815260200191505060405180910390f35b34801561021c57600080fd5b50610251600480360381019080803573ffffffffffffffffffffffffffffffffffffffff169060200190929190505050610904565b604051808215151515815260200191505060405180910390f35b34801561027757600080fd5b5061028061092a565b604051808773ffffffffffffffffffffffffffffffffffffffff1673ffffffffffffffffffffffffffffffffffffffff1681526020018660001916600019168152602001858152602001848152602001838152602001828152602001965050505050505060405180910390f35b3480156102f957600080fd5b5061031860048036038101908080359060200190929190505050610978565b604051808273ffffffffffffffffffffffffffffffffffffffff1673ffffffffffffffffffffffffffffffffffffffff16815260200191505060405180910390f35b34801561036657600080fd5b5061036f6109b6565b604051808273ffffffffffffffffffffffffffffffffffffffff1673ffffffffffffffffffffffffffffffffffffffff16815260200191505060405180910390f35b3480156103bd57600080fd5b506103c66109db565b6040518082815260200191505060405180910390f35b3480156103e857600080fd5b506103f16109e3565b6040518082815260200191505060405180910390f35b34801561041357600080fd5b5061041c6109e9565b604051808215151515815260200191505060405180910390f35b34801561044257600080fd5b5061044b6109fc565b604051808273ffffffffffffffffffffffffffffffffffffffff1673ffffffffffffffffffffffffffffffffffffffff16815260200191505060405180910390f35b34801561049957600080fd5b506104a2610a22565b60405180826000191660001916815260200191505060405180910390f35b3480156104cc57600080fd5b506104d5610a2c565b6040518082815260200191505060405180910390f35b60008060009054906101000a900473ffffffffffffffffffffffffffffffffffffffff1673ffffffffffffffffffffffffffffffffffffffff163373ffffffffffffffffffffffffffffffffffffffff161415151561054957600080fd5b6003544210151561055957600080fd5b600754821115151561056a57600080fd5b73__PurchaseLibrary_______________________6365227d153061058d6109db565b6000336040518563ffffffff167c0100000000000000000000000000000000000000000000000000000000028152600401808573ffffffffffffffffffffffffffffffffffffffff1673ffffffffffffffffffffffffffffffffffffffff168152602001848152602001836001026000191681526020018273ffffffffffffffffffffffffffffffffffffffff1673ffffffffffffffffffffffffffffffffffffffff16815260200194505050505060206040518083038186803b15801561065457600080fd5b505af4158015610668573d6000803e3d6000fd5b505050506040513d602081101561067e57600080fd5b810190808051906020019092919050505090508160076000828254039250508190555060058190806001815401808255809150509060018203906000526020600020016000909192909190916101000a81548173ffffffffffffffffffffffffffffffffffffffff021916908373ffffffffffffffffffffffffffffffffffffffff160217905550508073ffffffffffffffffffffffffffffffffffffffff16631b9265b8346040518263ffffffff167c01000000000000000000000000000000000000000000000000000000000281526004016000604051808303818588803b15801561076b57600080fd5b505af115801561077f573d6000803e3d6000fd5b50505050507f56a36f7cab0bd0ad5a828edc727be849fae684e1f97615397a1ad502d7ee636081604051808273ffffffffffffffffffffffffffffffffffffffff1673ffffffffffffffffffffffffffffffffffffffff16815260200191505060405180910390a17f91421f8b287136d63da295497519b57f83e4fab66143eeff73cd1aba3c3d71cf60405160405180910390a15050565b6000600580549050905090565b60025481565b600060058281548110151561083b57fe5b9060005260206000200160009054906101000a900473ffffffffffffffffffffffffffffffffffffffff169050919050565b6000809054906101000a900473ffffffffffffffffffffffffffffffffffffffff1673ffffffffffffffffffffffffffffffffffffffff163373ffffffffffffffffffffffffffffffffffffffff161415156108c857600080fd5b60006007819055507f91421f8b287136d63da295497519b57f83e4fab66143eeff73cd1aba3c3d71cf60405160405180910390a1565b60035481565b60006006548273ffffffffffffffffffffffffffffffffffffffff163110159050919050565b6000806000806000806000809054906101000a900473ffffffffffffffffffffffffffffffffffffffff16600854600654600754600254600354955095509550955095509550909192939495565b60058181548110151561098757fe5b906000526020600020016000915054906101000a900473ffffffffffffffffffffffffffffffffffffffff1681565b6000809054906101000a900473ffffffffffffffffffffffffffffffffffffffff1681565b600080905090565b60065481565b600460009054906101000a900460ff1681565b600160009054906101000a900473ffffffffffffffffffffffffffffffffffffffff1681565b6000600854905090565b600754815600a165627a7a723058205635471cb317504fdd83f4ebbd1ca91d16a8cd730ba877ade5263519f964d3240029",
  "source": "pragma solidity 0.4.24;\n\nimport \"./Publication.sol\";\nimport \"./PurchaseLibrary.sol\";\n\ncontract UnitPublication is Publication {\n\n  /*\n   * Events\n   */\n\n  event PublicationPurchased(Purchase _purchaseContract);\n\n  /*\n  * Storage\n  */\n\n  uint public price;\n  uint public unitsAvailable;\n  bytes32 public ipfsHash;\n\n\n  constructor (\n    address _owner,\n    bytes32 _ipfsHash,\n    uint _price,\n    uint _unitsAvailable\n  )\n  public\n  {\n    owner = _owner;\n    publicationRegistry = msg.sender; // PublicationRegistry(msg.sender);\n    // Assume IPFS defaults for hash: function:0x12=sha2, size:0x20=256 bits\n    // See: https://ethereum.stackexchange.com/a/17112/20332\n    // This assumption may have to change in future, but saves space now\n    ipfsHash = _ipfsHash;\n    price = _price;\n    unitsAvailable = _unitsAvailable;\n    created = now;\n    expiration = created + 60 days;\n    needsSellerApproval = false;\n  }\n\n  /*\n    * Public functions\n  */\n\n  function data()\n    public\n    view\n    returns (address _owner, bytes32 _ipfsHash, uint _price, uint _unitsAvailable, uint _created, uint _expiration)\n  {\n    return (owner, ipfsHash, price, unitsAvailable, created, expiration);\n  }\n\n  /// @dev buyPublication(): Buy a publication\n  /// @param _unitsToBuy Number of units to buy\n  function buyPublication(uint _unitsToBuy)\n    public\n    payable\n    isNotSeller\n    hasNotExpired\n  {\n    // Ensure that this is not trying to purchase more than is available.\n    require(_unitsToBuy <= unitsAvailable);\n\n    // Create purchase contract\n    Purchase purchaseContract = PurchaseLibrary.newPurchase(this, currentVersion(), 0x0000000000000000000000000000000000000000000000000000000000000000, msg.sender);\n\n    // Count units as sold\n    unitsAvailable -= _unitsToBuy;\n\n    purchases.push(purchaseContract);\n\n    // TODO STAN: How to call function *AND* transfer value??\n    purchaseContract.pay.value(msg.value)();\n\n    emit PublicationPurchased(purchaseContract);\n    emit PublicationChange();\n  }\n\n  /// @dev close(): Allows a seller to close the publication from further purchases\n  function close()\n    public\n    isSeller\n  {\n    unitsAvailable = 0;\n    emit PublicationChange();\n  }\n\n  function isApproved(Purchase _purchase)\n    public\n    view\n    returns (bool)\n  {\n    return address(_purchase).balance >= price;\n  }\n\n  function currentVersion()\n    public\n    constant\n    returns (uint)\n  {\n    // hard-coded for now as we're not yet supporting edits for unit publications\n    return 0;\n  }\n\n  function ipfsHash()\n    public\n    constant\n    returns (bytes32)\n  {\n    return ipfsHash;\n  }\n}\n",
  "sourcePath": "/home/alejandro/workspace/synapseslabs/synapses-contracts/contracts/UnitPublication.sol",
  "compiler": {
    "name": "solc",
    "version": "0.4.24+commit.e67f0147.Emscripten.clang"
  },
  "schemaVersion": "2.0.0",
  "updatedAt": "2018-08-07T16:24:04.347Z"
}